{
  "contractName": "RecycToken",
  "abi": [
    {
      "inputs": [],
      "stateMutability": "nonpayable",
      "type": "constructor"
    },
    {
      "inputs": [
        {
          "internalType": "address",
          "name": "spender",
          "type": "address"
        },
        {
          "internalType": "uint256",
          "name": "allowance",
          "type": "uint256"
        },
        {
          "internalType": "uint256",
          "name": "needed",
          "type": "uint256"
        }
      ],
      "name": "ERC20InsufficientAllowance",
      "type": "error"
    },
    {
      "inputs": [
        {
          "internalType": "address",
          "name": "sender",
          "type": "address"
        },
        {
          "internalType": "uint256",
          "name": "balance",
          "type": "uint256"
        },
        {
          "internalType": "uint256",
          "name": "needed",
          "type": "uint256"
        }
      ],
      "name": "ERC20InsufficientBalance",
      "type": "error"
    },
    {
      "inputs": [
        {
          "internalType": "address",
          "name": "approver",
          "type": "address"
        }
      ],
      "name": "ERC20InvalidApprover",
      "type": "error"
    },
    {
      "inputs": [
        {
          "internalType": "address",
          "name": "receiver",
          "type": "address"
        }
      ],
      "name": "ERC20InvalidReceiver",
      "type": "error"
    },
    {
      "inputs": [
        {
          "internalType": "address",
          "name": "sender",
          "type": "address"
        }
      ],
      "name": "ERC20InvalidSender",
      "type": "error"
    },
    {
      "inputs": [
        {
          "internalType": "address",
          "name": "spender",
          "type": "address"
        }
      ],
      "name": "ERC20InvalidSpender",
      "type": "error"
    },
    {
      "anonymous": false,
      "inputs": [
        {
          "indexed": true,
          "internalType": "address",
          "name": "owner",
          "type": "address"
        },
        {
          "indexed": true,
          "internalType": "address",
          "name": "spender",
          "type": "address"
        },
        {
          "indexed": false,
          "internalType": "uint256",
          "name": "value",
          "type": "uint256"
        }
      ],
      "name": "Approval",
      "type": "event"
    },
    {
      "anonymous": false,
      "inputs": [
        {
          "indexed": true,
          "internalType": "address",
          "name": "from",
          "type": "address"
        },
        {
          "indexed": true,
          "internalType": "address",
          "name": "to",
          "type": "address"
        },
        {
          "indexed": false,
          "internalType": "uint256",
          "name": "value",
          "type": "uint256"
        }
      ],
      "name": "Transfer",
      "type": "event"
    },
    {
      "inputs": [
        {
          "internalType": "address",
          "name": "owner",
          "type": "address"
        },
        {
          "internalType": "address",
          "name": "spender",
          "type": "address"
        }
      ],
      "name": "allowance",
      "outputs": [
        {
          "internalType": "uint256",
          "name": "",
          "type": "uint256"
        }
      ],
      "stateMutability": "view",
      "type": "function",
      "constant": true
    },
    {
      "inputs": [
        {
          "internalType": "address",
          "name": "spender",
          "type": "address"
        },
        {
          "internalType": "uint256",
          "name": "value",
          "type": "uint256"
        }
      ],
      "name": "approve",
      "outputs": [
        {
          "internalType": "bool",
          "name": "",
          "type": "bool"
        }
      ],
      "stateMutability": "nonpayable",
      "type": "function"
    },
    {
      "inputs": [
        {
          "internalType": "address",
          "name": "account",
          "type": "address"
        }
      ],
      "name": "balanceOf",
      "outputs": [
        {
          "internalType": "uint256",
          "name": "",
          "type": "uint256"
        }
      ],
      "stateMutability": "view",
      "type": "function",
      "constant": true
    },
    {
      "inputs": [],
      "name": "decimals",
      "outputs": [
        {
          "internalType": "uint8",
          "name": "",
          "type": "uint8"
        }
      ],
      "stateMutability": "view",
      "type": "function",
      "constant": true
    },
    {
      "inputs": [],
      "name": "name",
      "outputs": [
        {
          "internalType": "string",
          "name": "",
          "type": "string"
        }
      ],
      "stateMutability": "view",
      "type": "function",
      "constant": true
    },
    {
      "inputs": [],
      "name": "symbol",
      "outputs": [
        {
          "internalType": "string",
          "name": "",
          "type": "string"
        }
      ],
      "stateMutability": "view",
      "type": "function",
      "constant": true
    },
    {
      "inputs": [],
      "name": "totalSupply",
      "outputs": [
        {
          "internalType": "uint256",
          "name": "",
          "type": "uint256"
        }
      ],
      "stateMutability": "view",
      "type": "function",
      "constant": true
    },
    {
      "inputs": [
        {
          "internalType": "address",
          "name": "to",
          "type": "address"
        },
        {
          "internalType": "uint256",
          "name": "value",
          "type": "uint256"
        }
      ],
      "name": "transfer",
      "outputs": [
        {
          "internalType": "bool",
          "name": "",
          "type": "bool"
        }
      ],
      "stateMutability": "nonpayable",
      "type": "function"
    },
    {
      "inputs": [
        {
          "internalType": "address",
          "name": "from",
          "type": "address"
        },
        {
          "internalType": "address",
          "name": "to",
          "type": "address"
        },
        {
          "internalType": "uint256",
          "name": "value",
          "type": "uint256"
        }
      ],
      "name": "transferFrom",
      "outputs": [
        {
          "internalType": "bool",
          "name": "",
          "type": "bool"
        }
      ],
      "stateMutability": "nonpayable",
      "type": "function"
    },
    {
      "inputs": [
        {
          "internalType": "address",
          "name": "user",
          "type": "address"
        },
        {
          "internalType": "uint256",
          "name": "amount",
          "type": "uint256"
        },
        {
          "internalType": "string",
          "name": "item",
          "type": "string"
        }
      ],
      "name": "rewardUser",
      "outputs": [],
      "stateMutability": "nonpayable",
      "type": "function"
    },
    {
      "inputs": [
        {
          "internalType": "address",
          "name": "user",
          "type": "address"
        }
      ],
      "name": "getRecyclingHistory",
      "outputs": [
        {
          "components": [
            {
              "internalType": "uint256",
              "name": "amount",
              "type": "uint256"
            },
            {
              "internalType": "uint256",
              "name": "timestamp",
              "type": "uint256"
            },
            {
              "internalType": "string",
              "name": "item",
              "type": "string"
            }
          ],
          "internalType": "struct RecycToken.RecyclingRecord[]",
          "name": "",
          "type": "tuple[]"
        }
      ],
      "stateMutability": "view",
      "type": "function",
      "constant": true
    },
    {
      "inputs": [
        {
          "internalType": "string",
          "name": "_username",
          "type": "string"
        }
      ],
      "name": "setUsername",
      "outputs": [],
      "stateMutability": "nonpayable",
      "type": "function"
    },
    {
      "inputs": [
        {
          "internalType": "address",
          "name": "user",
          "type": "address"
        }
      ],
      "name": "getUsername",
      "outputs": [
        {
          "internalType": "string",
          "name": "",
          "type": "string"
        }
      ],
      "stateMutability": "view",
      "type": "function",
      "constant": true
    },
    {
      "inputs": [
        {
          "internalType": "uint256",
          "name": "amount",
          "type": "uint256"
        }
      ],
      "name": "redeemTokens",
      "outputs": [],
      "stateMutability": "nonpayable",
      "type": "function"
    }
  ],
  "bytecode": "0x60806040523480156200001157600080fd5b506040518060400160405280600e81526020017f52656379636c65204372656469740000000000000000000000000000000000008152506040518060400160405280600281526020017f524300000000000000000000000000000000000000000000000000000000000081525081600390816200008f91906200032a565b508060049081620000a191906200032a565b50505062000411565b600081519050919050565b7f4e487b7100000000000000000000000000000000000000000000000000000000600052604160045260246000fd5b7f4e487b7100000000000000000000000000000000000000000000000000000000600052602260045260246000fd5b600060028204905060018216806200012c57607f821691505b602082108103620001425762000141620000e4565b5b50919050565b60008190508160005260206000209050919050565b60006020601f8301049050919050565b60008160020a8302905092915050565b600060088302620001af7fffffffffffffffffffffffffffffffffffffffffffffffffffffffffffffffff826200016d565b620001bb86836200016d565b95508019841693508086168417925050509392505050565b6000819050919050565b6000819050919050565b60006200020862000202620001fc84620001d3565b620001dd565b620001d3565b9050919050565b6000819050919050565b6200022483620001e7565b6200023c62000233826200020f565b8484546200017d565b825550505050565b600090565b6200025362000244565b6200026081848462000219565b505050565b5b8181101562000288576200027c60008262000249565b60018101905062000266565b5050565b601f821115620002d757620002a18162000148565b620002ac846200015d565b81016020851015620002bc578190505b620002d4620002cb856200015d565b83018262000265565b50505b505050565b60008160020a8304905092915050565b6000620002ff60001984600802620002dc565b1980831691505092915050565b60006200031a8383620002ec565b9150826002028217905092915050565b6200033582620000aa565b67ffffffffffffffff811115620003515762000350620000b5565b5b6200035d825462000113565b6200036a8282856200028c565b600060209050601f831160018114620003a257600084156200038d578287015190505b6200039985826200030c565b86555062000409565b601f198416620003b28662000148565b60005b82811015620003dc57848901518255600182019150602085019450602081019050620003b5565b86831015620003fc5784890151620003f8601f891682620002ec565b8355505b6001600288020188555050505b505050505050565b611aa380620004216000396000f3fe608060405234801561001057600080fd5b5060043610610107576000357c01000000000000000000000000000000000000000000000000000000009004806370a08231116100a9578063a9059cbb11610083578063a9059cbb1461027c578063ce43c032146102ac578063dd62ed3e146102dc578063ed59313a1461030c57610107565b806370a082311461021257806395d89b4114610242578063a6e158f81461026057610107565b806323b872dd116100e557806323b872dd146101785780632d1ef1a7146101a8578063313ce567146101d857806364906198146101f657610107565b806306fdde031461010c578063095ea7b31461012a57806318160ddd1461015a575b600080fd5b610114610328565b6040516101219190611051565b60405180910390f35b610144600480360381019061013f919061111b565b6103ba565b6040516101519190611176565b60405180910390f35b6101626103dd565b60405161016f91906111a0565b60405180910390f35b610192600480360381019061018d91906111bb565b6103e7565b60405161019f9190611176565b60405180910390f35b6101c260048036038101906101bd919061120e565b610416565b6040516101cf91906113a6565b60405180910390f35b6101e061055a565b6040516101ed91906113e4565b60405180910390f35b610210600480360381019061020b9190611534565b610563565b005b61022c6004803603810190610227919061120e565b610621565b60405161023991906111a0565b60405180910390f35b61024a610669565b6040516102579190611051565b60405180910390f35b61027a600480360381019061027591906115a3565b6106fb565b005b6102966004803603810190610291919061111b565b610753565b6040516102a39190611176565b60405180910390f35b6102c660048036038101906102c1919061120e565b610776565b6040516102d39190611051565b60405180910390f35b6102f660048036038101906102f191906115d0565b610847565b60405161030391906111a0565b60405180910390f35b61032660048036038101906103219190611610565b6108ce565b005b60606003805461033790611688565b80601f016020809104026020016040519081016040528092919081815260200182805461036390611688565b80156103b05780601f10610385576101008083540402835291602001916103b0565b820191906000526020600020905b81548152906001019060200180831161039357829003601f168201915b5050505050905090565b6000806103c561091e565b90506103d2818585610926565b600191505092915050565b6000600254905090565b6000806103f261091e565b90506103ff858285610938565b61040a8585856109cd565b60019150509392505050565b6060600660008373ffffffffffffffffffffffffffffffffffffffff1673ffffffffffffffffffffffffffffffffffffffff168152602001908152602001600020805480602002602001604051908101604052809291908181526020016000905b8282101561054f578382906000526020600020906003020160405180606001604052908160008201548152602001600182015481526020016002820180546104be90611688565b80601f01602080910402602001604051908101604052809291908181526020018280546104ea90611688565b80156105375780601f1061050c57610100808354040283529160200191610537565b820191906000526020600020905b81548152906001019060200180831161051a57829003601f168201915b50505050508152505081526020019060010190610477565b505050509050919050565b60006012905090565b61056d8383610ac1565b600660008473ffffffffffffffffffffffffffffffffffffffff1673ffffffffffffffffffffffffffffffffffffffff168152602001908152602001600020604051806060016040528084815260200142815260200183815250908060018154018082558091505060019003906000526020600020906003020160009091909190915060008201518160000155602082015181600101556040820151816002019081610619919061186b565b505050505050565b60008060008373ffffffffffffffffffffffffffffffffffffffff1673ffffffffffffffffffffffffffffffffffffffff168152602001908152602001600020549050919050565b60606004805461067890611688565b80601f01602080910402602001604051908101604052809291908181526020018280546106a490611688565b80156106f15780601f106106c6576101008083540402835291602001916106f1565b820191906000526020600020905b8154815290600101906020018083116106d457829003601f168201915b5050505050905090565b8061070533610621565b1015610746576040517f08c379a000000000000000000000000000000000000000000000000000000000815260040161073d90611989565b60405180910390fd5b6107503382610b43565b50565b60008061075e61091e565b905061076b8185856109cd565b600191505092915050565b6060600560008373ffffffffffffffffffffffffffffffffffffffff1673ffffffffffffffffffffffffffffffffffffffff16815260200190815260200160002080546107c290611688565b80601f01602080910402602001604051908101604052809291908181526020018280546107ee90611688565b801561083b5780601f106108105761010080835404028352916020019161083b565b820191906000526020600020905b81548152906001019060200180831161081e57829003601f168201915b50505050509050919050565b6000600160008473ffffffffffffffffffffffffffffffffffffffff1673ffffffffffffffffffffffffffffffffffffffff16815260200190815260200160002060008373ffffffffffffffffffffffffffffffffffffffff1673ffffffffffffffffffffffffffffffffffffffff16815260200190815260200160002054905092915050565b80600560003373ffffffffffffffffffffffffffffffffffffffff1673ffffffffffffffffffffffffffffffffffffffff168152602001908152602001600020908161091a919061186b565b5050565b600033905090565b6109338383836001610bc5565b505050565b60006109448484610847565b90507fffffffffffffffffffffffffffffffffffffffffffffffffffffffffffffffff8110156109c757818110156109b7578281836040517ffb8f41b20000000000000000000000000000000000000000000000000000000081526004016109ae939291906119b8565b60405180910390fd5b6109c684848484036000610bc5565b5b50505050565b600073ffffffffffffffffffffffffffffffffffffffff168373ffffffffffffffffffffffffffffffffffffffff1603610a3f5760006040517f96c6fd1e000000000000000000000000000000000000000000000000000000008152600401610a3691906119ef565b60405180910390fd5b600073ffffffffffffffffffffffffffffffffffffffff168273ffffffffffffffffffffffffffffffffffffffff1603610ab15760006040517fec442f05000000000000000000000000000000000000000000000000000000008152600401610aa891906119ef565b60405180910390fd5b610abc838383610d9c565b505050565b600073ffffffffffffffffffffffffffffffffffffffff168273ffffffffffffffffffffffffffffffffffffffff1603610b335760006040517fec442f05000000000000000000000000000000000000000000000000000000008152600401610b2a91906119ef565b60405180910390fd5b610b3f60008383610d9c565b5050565b600073ffffffffffffffffffffffffffffffffffffffff168273ffffffffffffffffffffffffffffffffffffffff1603610bb55760006040517f96c6fd1e000000000000000000000000000000000000000000000000000000008152600401610bac91906119ef565b60405180910390fd5b610bc182600083610d9c565b5050565b600073ffffffffffffffffffffffffffffffffffffffff168473ffffffffffffffffffffffffffffffffffffffff1603610c375760006040517fe602df05000000000000000000000000000000000000000000000000000000008152600401610c2e91906119ef565b60405180910390fd5b600073ffffffffffffffffffffffffffffffffffffffff168373ffffffffffffffffffffffffffffffffffffffff1603610ca95760006040517f94280d62000000000000000000000000000000000000000000000000000000008152600401610ca091906119ef565b60405180910390fd5b81600160008673ffffffffffffffffffffffffffffffffffffffff1673ffffffffffffffffffffffffffffffffffffffff16815260200190815260200160002060008573ffffffffffffffffffffffffffffffffffffffff1673ffffffffffffffffffffffffffffffffffffffff168152602001908152602001600020819055508015610d96578273ffffffffffffffffffffffffffffffffffffffff168473ffffffffffffffffffffffffffffffffffffffff167f8c5be1e5ebec7d5bd14f71427d1e84f3dd0314c0f7b2291e5b200ac8c7c3b92584604051610d8d91906111a0565b60405180910390a35b50505050565b600073ffffffffffffffffffffffffffffffffffffffff168373ffffffffffffffffffffffffffffffffffffffff1603610dee578060026000828254610de29190611a39565b92505081905550610ec1565b60008060008573ffffffffffffffffffffffffffffffffffffffff1673ffffffffffffffffffffffffffffffffffffffff16815260200190815260200160002054905081811015610e7a578381836040517fe450d38c000000000000000000000000000000000000000000000000000000008152600401610e71939291906119b8565b60405180910390fd5b8181036000808673ffffffffffffffffffffffffffffffffffffffff1673ffffffffffffffffffffffffffffffffffffffff16815260200190815260200160002081905550505b600073ffffffffffffffffffffffffffffffffffffffff168273ffffffffffffffffffffffffffffffffffffffff1603610f0a5780600260008282540392505081905550610f57565b806000808473ffffffffffffffffffffffffffffffffffffffff1673ffffffffffffffffffffffffffffffffffffffff168152602001908152602001600020600082825401925050819055505b8173ffffffffffffffffffffffffffffffffffffffff168373ffffffffffffffffffffffffffffffffffffffff167fddf252ad1be2c89b69c2b068fc378daa952ba7f163c4a11628f55a4df523b3ef83604051610fb491906111a0565b60405180910390a3505050565b600081519050919050565b600082825260208201905092915050565b60005b83811015610ffb578082015181840152602081019050610fe0565b60008484015250505050565b6000601f19601f8301169050919050565b600061102382610fc1565b61102d8185610fcc565b935061103d818560208601610fdd565b61104681611007565b840191505092915050565b6000602082019050818103600083015261106b8184611018565b905092915050565b6000604051905090565b600080fd5b600080fd5b600073ffffffffffffffffffffffffffffffffffffffff82169050919050565b60006110b282611087565b9050919050565b6110c2816110a7565b81146110cd57600080fd5b50565b6000813590506110df816110b9565b92915050565b6000819050919050565b6110f8816110e5565b811461110357600080fd5b50565b600081359050611115816110ef565b92915050565b600080604083850312156111325761113161107d565b5b6000611140858286016110d0565b925050602061115185828601611106565b9150509250929050565b60008115159050919050565b6111708161115b565b82525050565b600060208201905061118b6000830184611167565b92915050565b61119a816110e5565b82525050565b60006020820190506111b56000830184611191565b92915050565b6000806000606084860312156111d4576111d361107d565b5b60006111e2868287016110d0565b93505060206111f3868287016110d0565b925050604061120486828701611106565b9150509250925092565b6000602082840312156112245761122361107d565b5b6000611232848285016110d0565b91505092915050565b600081519050919050565b600082825260208201905092915050565b6000819050602082019050919050565b611270816110e5565b82525050565b600082825260208201905092915050565b600061129282610fc1565b61129c8185611276565b93506112ac818560208601610fdd565b6112b581611007565b840191505092915050565b60006060830160008301516112d86000860182611267565b5060208301516112eb6020860182611267565b50604083015184820360408601526113038282611287565b9150508091505092915050565b600061131c83836112c0565b905092915050565b6000602082019050919050565b600061133c8261123b565b6113468185611246565b93508360208202850161135885611257565b8060005b8581101561139457848403895281516113758582611310565b945061138083611324565b925060208a0199505060018101905061135c565b50829750879550505050505092915050565b600060208201905081810360008301526113c08184611331565b905092915050565b600060ff82169050919050565b6113de816113c8565b82525050565b60006020820190506113f960008301846113d5565b92915050565b600080fd5b600080fd5b7f4e487b7100000000000000000000000000000000000000000000000000000000600052604160045260246000fd5b61144182611007565b810181811067ffffffffffffffff821117156114605761145f611409565b5b80604052505050565b6000611473611073565b905061147f8282611438565b919050565b600067ffffffffffffffff82111561149f5761149e611409565b5b6114a882611007565b9050602081019050919050565b82818337600083830152505050565b60006114d76114d284611484565b611469565b9050828152602081018484840111156114f3576114f2611404565b5b6114fe8482856114b5565b509392505050565b600082601f83011261151b5761151a6113ff565b5b813561152b8482602086016114c4565b91505092915050565b60008060006060848603121561154d5761154c61107d565b5b600061155b868287016110d0565b935050602061156c86828701611106565b925050604084013567ffffffffffffffff81111561158d5761158c611082565b5b61159986828701611506565b9150509250925092565b6000602082840312156115b9576115b861107d565b5b60006115c784828501611106565b91505092915050565b600080604083850312156115e7576115e661107d565b5b60006115f5858286016110d0565b9250506020611606858286016110d0565b9150509250929050565b6000602082840312156116265761162561107d565b5b600082013567ffffffffffffffff81111561164457611643611082565b5b61165084828501611506565b91505092915050565b7f4e487b7100000000000000000000000000000000000000000000000000000000600052602260045260246000fd5b600060028204905060018216806116a057607f821691505b6020821081036116b3576116b2611659565b5b50919050565b60008190508160005260206000209050919050565b60006020601f8301049050919050565b60008160020a8302905092915050565b60006008830261171e7fffffffffffffffffffffffffffffffffffffffffffffffffffffffffffffffff826116de565b61172886836116de565b95508019841693508086168417925050509392505050565b6000819050919050565b600061176561176061175b846110e5565b611740565b6110e5565b9050919050565b6000819050919050565b61177f8361174a565b61179361178b8261176c565b8484546116ee565b825550505050565b600090565b6117a861179b565b6117b3818484611776565b505050565b5b818110156117d7576117cc6000826117a0565b6001810190506117b9565b5050565b601f82111561181c576117ed816116b9565b6117f6846116ce565b81016020851015611805578190505b611819611811856116ce565b8301826117b8565b50505b505050565b60008160020a8304905092915050565b600061184260001984600802611821565b1980831691505092915050565b600061185b8383611831565b9150826002028217905092915050565b61187482610fc1565b67ffffffffffffffff81111561188d5761188c611409565b5b6118978254611688565b6118a28282856117db565b600060209050601f8311600181146118d557600084156118c3578287015190505b6118cd858261184f565b865550611935565b601f1984166118e3866116b9565b60005b8281101561190b578489015182556001820191506020850194506020810190506118e6565b868310156119285784890151611924601f891682611831565b8355505b6001600288020188555050505b505050505050565b7f496e73756666696369656e742062616c616e636520746f2072656465656d0000600082015250565b6000611973601e83610fcc565b915061197e8261193d565b602082019050919050565b600060208201905081810360008301526119a281611966565b9050919050565b6119b2816110a7565b82525050565b60006060820190506119cd60008301866119a9565b6119da6020830185611191565b6119e76040830184611191565b949350505050565b6000602082019050611a0460008301846119a9565b92915050565b7f4e487b7100000000000000000000000000000000000000000000000000000000600052601160045260246000fd5b6000611a44826110e5565b9150611a4f836110e5565b9250828201905080821115611a6757611a66611a0a565b5b9291505056fea2646970667358221220187ec99e9198e8bd8bd1be59c153b1b41674101ffb32d0e46c4a406599f1214164736f6c63430008150033",
  "immutableReferences": {},
  "source": "// SPDX-License-Identifier: MIT\r\npragma solidity ^0.8.0;\r\n\r\nimport \"@openzeppelin/contracts/token/ERC20/ERC20.sol\";\r\n\r\ncontract RecycToken is ERC20 {\r\n    mapping(address => string) private usernames; // Mapping of wallet addresses to usernames\r\n\r\n    constructor() ERC20(\"Recycle Credit\", \"RC\") {}\r\n\r\n    //  Struct to store recycling history (amount, timestamp, item)\r\n    struct RecyclingRecord {\r\n        uint256 amount;\r\n        uint256 timestamp;\r\n        string item; //  Added item name\r\n    }\r\n\r\n    //  Mapping to store user recycling history\r\n    mapping(address => RecyclingRecord[]) private recyclingHistory;\r\n\r\n    //  Allow any user to earn tokens and store the recycling record\r\n    function rewardUser(address user, uint256 amount, string memory item) public {\r\n        _mint(user, amount);\r\n        recyclingHistory[user].push(RecyclingRecord(amount, block.timestamp, item));\r\n    }\r\n\r\n    //  Retrieve a user's recycling history\r\n    function getRecyclingHistory(address user) public view returns (RecyclingRecord[] memory) {\r\n        return recyclingHistory[user];\r\n    }\r\n\r\n    //  Set or update username for a wallet address\r\n    function setUsername(string memory _username) public {\r\n        usernames[msg.sender] = _username;\r\n    }\r\n\r\n    //  Get username associated with a wallet address\r\n    function getUsername(address user) public view returns (string memory) {\r\n        return usernames[user];\r\n    }\r\n\r\n    //  Redeem tokens\r\n    function redeemTokens(uint256 amount) public {\r\n        require(balanceOf(msg.sender) >= amount, \"Insufficient balance to redeem\");\r\n        _burn(msg.sender, amount);\r\n    }\r\n}\r\n",
  "sourcePath": "C:\\Users\\geetc\\OneDrive\\Desktop\\Projects\\Blockchain\\Sustainovate2\\contracts\\RecycToken.sol",
  "compiler": {
    "name": "solc",
    "version": "0.8.21+commit.d9974bed.Emscripten.clang"
  },
  "schemaVersion": "3.4.16",
  "updatedAt": "2025-03-24T08:40:05.158Z",
  "networkType": "ethereum",
  "devdoc": {
    "errors": {
      "ERC20InsufficientAllowance(address,uint256,uint256)": [
        {
          "details": "Indicates a failure with the `spender`s `allowance`. Used in transfers.",
          "params": {
            "allowance": "Amount of tokens a `spender` is allowed to operate with.",
            "needed": "Minimum amount required to perform a transfer.",
            "spender": "Address that may be allowed to operate on tokens without being their owner."
          }
        }
      ],
      "ERC20InsufficientBalance(address,uint256,uint256)": [
        {
          "details": "Indicates an error related to the current `balance` of a `sender`. Used in transfers.",
          "params": {
            "balance": "Current balance for the interacting account.",
            "needed": "Minimum amount required to perform a transfer.",
            "sender": "Address whose tokens are being transferred."
          }
        }
      ],
      "ERC20InvalidApprover(address)": [
        {
          "details": "Indicates a failure with the `approver` of a token to be approved. Used in approvals.",
          "params": {
            "approver": "Address initiating an approval operation."
          }
        }
      ],
      "ERC20InvalidReceiver(address)": [
        {
          "details": "Indicates a failure with the token `receiver`. Used in transfers.",
          "params": {
            "receiver": "Address to which tokens are being transferred."
          }
        }
      ],
      "ERC20InvalidSender(address)": [
        {
          "details": "Indicates a failure with the token `sender`. Used in transfers.",
          "params": {
            "sender": "Address whose tokens are being transferred."
          }
        }
      ],
      "ERC20InvalidSpender(address)": [
        {
          "details": "Indicates a failure with the `spender` to be approved. Used in approvals.",
          "params": {
            "spender": "Address that may be allowed to operate on tokens without being their owner."
          }
        }
      ]
    },
    "events": {
      "Approval(address,address,uint256)": {
        "details": "Emitted when the allowance of a `spender` for an `owner` is set by a call to {approve}. `value` is the new allowance."
      },
      "Transfer(address,address,uint256)": {
        "details": "Emitted when `value` tokens are moved from one account (`from`) to another (`to`). Note that `value` may be zero."
      }
    },
    "kind": "dev",
    "methods": {
      "allowance(address,address)": {
        "details": "See {IERC20-allowance}."
      },
      "approve(address,uint256)": {
        "details": "See {IERC20-approve}. NOTE: If `value` is the maximum `uint256`, the allowance is not updated on `transferFrom`. This is semantically equivalent to an infinite approval. Requirements: - `spender` cannot be the zero address."
      },
      "balanceOf(address)": {
        "details": "See {IERC20-balanceOf}."
      },
      "decimals()": {
        "details": "Returns the number of decimals used to get its user representation. For example, if `decimals` equals `2`, a balance of `505` tokens should be displayed to a user as `5.05` (`505 / 10 ** 2`). Tokens usually opt for a value of 18, imitating the relationship between Ether and Wei. This is the default value returned by this function, unless it's overridden. NOTE: This information is only used for _display_ purposes: it in no way affects any of the arithmetic of the contract, including {IERC20-balanceOf} and {IERC20-transfer}."
      },
      "name()": {
        "details": "Returns the name of the token."
      },
      "symbol()": {
        "details": "Returns the symbol of the token, usually a shorter version of the name."
      },
      "totalSupply()": {
        "details": "See {IERC20-totalSupply}."
      },
      "transfer(address,uint256)": {
        "details": "See {IERC20-transfer}. Requirements: - `to` cannot be the zero address. - the caller must have a balance of at least `value`."
      },
      "transferFrom(address,address,uint256)": {
        "details": "See {IERC20-transferFrom}. Skips emitting an {Approval} event indicating an allowance update. This is not required by the ERC. See {xref-ERC20-_approve-address-address-uint256-bool-}[_approve]. NOTE: Does not update the allowance if the current allowance is the maximum `uint256`. Requirements: - `from` and `to` cannot be the zero address. - `from` must have a balance of at least `value`. - the caller must have allowance for ``from``'s tokens of at least `value`."
      }
    },
    "version": 1
  },
  "userdoc": {
    "kind": "user",
    "methods": {},
    "version": 1
  }
}